:10400000000001206D7A0000697A0000697A0000E2
:10401000697A0000697A0000697A0000697A000014
:10402000697A0000697A0000697A0000697A000004
:10403000697A0000697A0000697A0000697A0000F4
:10404000697A0000697A0000697A0000697A0000E4
:10405000697A0000697A0000697A0000697A0000D4
:10406000697A0000697A0000697A0000697A0000C4
:10407000697A0000697A0000697A0000697A0000B4
:10408000697A0000697A0000697A0000697A0000A4
:10409000697A0000697A0000697A0000697A000094
:1040A000697A0000697A0000697A0000697A000084
:1040B000697A0000697A0000697A000019C6000078
:1040C000A5C50000A1C500001DC0000015C6000068
:1040D000A9C50000C9C50000ADC500008DAE000037
:1040E0005DC60000697A0000697A0000697A000004
:1040F000697A0000697A0000697A0000697A000034
:10410000697A0000697A0000697A0000697A000023
:10411000697A0000697A0000697A0000697A000013
:10412000697A0000697A0000697A0000697A000003
:10413000697A000010B5054C237833B9044B13B1EC
:10414000044800E000BF0123237010BD08010020D7
:104150000000000090F4000008B5034B1BB10349B8
:10416000034800E000BF08BD000000000C01002073
:1041700090F40000154B002B08BF134B9D46A3F590
:10418000803A00218B460F461348144A121A09F050
:104190006EF80F4B002B00D098470E4B002B00D031
:1041A00098470020002104000D000D48002802D08F
:1041B0000C4800E000BF09F02BF82000290002F0B5
:1041C0007BFE09F011F800BF00000800000001208C
:1041D000000000000000000008010020301E002048
:1041E000000000000000000037B50446684680E883
:1041F0000600251D03C885E805002373069B23617F
:10420000BDF81C30A38200232360084B1A6812B942
:104210001C6004E00A4611680029FBD114609888EC
:10422000013080B2988003B030BD00BF2407002069
:1042300007B50379054A0193036806CA009308305D
:104240000223FFF7D1FF03B05DF804FB2CD500007B
:1042500070B528242368E0B0B3F5804F05460E46BC
:1042600013D21B6BB3F5804F0FD25B6A4FF4C07251
:1042700069460020984730B9236832461B6B2946AF
:10428000DB6A6846984760B070BD4FF40170FAE78A
:1042900070B528252B68E0B0B3F5804F04D34FF4F8
:1042A0000174204660B070BD1B6B002BF7D05B6AB9
:1042B0004FF4C07269460020984704460028F0D1A8
:1042C00040F201262B68B3F5804FE8D21B6BB3F5A3
:1042D000804FE4D29B6A002168469847B042F1D0F3
:1042E00040F20323984218BF0446DAE741F67132E0
:1042F0000F4B10B5D969DA639A680E4C22F440125C
:10430000A04288BF42F480129A600B4A0B4CD2F84C
:104310001832A04223F0020388BF43F0020301F4E5
:104320008031C2F8183211B10022014BDA6310BD9E
:1043300000000340C017530200C0074080F0FA029B
:10434000094B0022996C30B5DC6C234642EA01042B
:10435000220C82701A0A210AC2701A0C1B0E0470F9
:1043600041700271437130BD0080E00F202A0B685C
:104370001EBF4FF0FF3191408B43590801F055317A
:104380005B1A03F033319B0803F033330B4401789D
:1043900003EB13130A444FF0013103F00F334B4387
:1043A000A2EB13630370704773B50026044602AD99
:1043B00005F8016D011D1B222846FFF7D7FF606835
:1043C0009DF80730B3EBD06F03D120F0784002B0F6
:1043D00070BD28461B2204F108018DF80760FFF725
:1043E000C5FFA0689DF80730B3EBD06F01D1C04383
:1043F000EBE74FF0FF30EAE74BF29A22036810B583
:10440000B2EB134F044611D19BB2012B0ED1FFF733
:10441000CBFF431C0AD04FF6FF72E068030C9342B7
:104420000AD180B2C01A18BF012010BD2368013321
:104430000CBF03200420F8E70220F6E737B5054655
:1044400001F10C04436901A9012220469847BDF8F7
:10445000043002A941F8083D0122AB692046984783
:1044600003B030BD2DE9F043054689B09946036994
:1044700008460E4617469847044600286CD1D9F8DE
:1044800004304FEA53285FEA580804F101036BD166
:1044900099F8032099F802301203DB0203F4006359
:1044A00002F480521A43B9F800306403C3F30A03DC
:1044B000134404F460441C442D4B1B22039327F047
:1044C0007843FF4302A901A802938DF80480FFF707
:1044D0004DFF9DF80420029B08A843EAC26300F840
:1044E0001D8D1B2201A927F0784704930197FFF740
:1044F0003DFF9DF80320019B08A943EAC263059391
:104500004FF0FF339DF84020069382F0010202F540
:104510007F42FE3244EA024441F8044DAB69012275
:1045200006F110009847AB690446012205A906F17F
:1045300008009847AB69002818BF0446012204A967
:10454000301D9847AB69002818BF0446012203A913
:104550003046984750B91CB131462846FFF76EFFE8
:10456000204609B0BDE8F0831C468CE70446F3E71B
:1045700001009AB2036803F07F03012B03D840685F
:1045800020F07C407047072B8CBFD81F002070475D
:1045900041F6713370B51C4C0122E669E36341F2C8
:1045A0000C03E250022360610546236100212120B3
:1045B00006F4803608F098FE18B90146212008F06C
:1045C00093FE42F20C030122E2500EB10023E3639A
:1045D000431C02D018B10D4800E00D4870BD0D4BD2
:1045E0009B680A3303F01F020123934023F0030367
:1045F0002B44AB4201D10020F0E755F8042B0132E7
:10460000F7D00548EAE700BF0000034024E000F0CF
:1046100021E000F00080E00F0EE000F0002310B574
:104620009A4201D1002010BD50F8234041F82340A8
:104630000133F5E77047000041F67132044B012168
:10464000DA6342F20C0299500022DA63704700BF2D
:104650000000034041F67132034B0121DA6342F25C
:104660000C02002099507047000003402DE9F041F2
:104670008646406800283BD0DEF800709046002453
:104680003E4657F834500134C5F3130C013501D0C0
:10469000614532D0844206F10806F2D13868013013
:1046A00031D0002507F1080606E057F835203046DE
:1046B000013206F1080627D00135A542F5D1032BBA
:1046C00016D0DEF800703868C0F30750032823D0F6
:1046D000002407F1080608E057F83400B446C0F398
:1046E0000750032806F1080617D00134A542F3D17C
:1046F00001238EF80830BDE8F08141EA0351C6E994
:104700000018BDE8F0813846C1F3130141EA0353B4
:10471000C0E90038BDE8F081BC46C1F3130141EAAD
:104720000353CCE90038BDE8F08100234FF0FF329D
:1047300030B544689C4202D10023037230BD016849
:1047400001EBC30541F833206A600133F2E7000052
:10475000EFF3108272B6034B1A6003680846DB68F9
:10476000184700BFB80F002070B50025044686B07A
:104770000562E369AB4202D8206A06B070BD666C80
:104780002068E36B05225B6901A906FB05009847D9
:1047900001A8FFF731FE012898BF236A05F1010542
:1047A0009CBF01332362E4E7F7B507460E460D468A
:1047B0007B6C86EA05045B421C40A5EB060001D039
:1047C00003B0F0BDFB6B01225B6901A92846984745
:1047D000019B013301D10435EAE72046F0E7F0B54B
:1047E000002504462E4687B0E369B34202D8284626
:1047F00007B0F0BD2368676C052207FB0637E36B43
:1048000001A95B693846984701A8FFF7F5FD012823
:1048100009D807F114012046FFF7C6FF636C143B6B
:10482000834208BF01350136DEE7F0B5046806466D
:104830000C1B416C0025B4FBF1F487B0F3693068C0
:104840005A1E9542776C06D3716C306801FB0400E8
:10485000143007B0F0BD0134B4FBF3F103FB114495
:10486000F36B05225B6901A907FB0400984701A8C7
:10487000FFF7C2FD0128E7D90135DFE72DE9F04F49
:10488000144607460E469946C36B89B05B69012200
:1048900005A96068DDF848809847FB6B01225B69D9
:1048A00004A930469847059B5A1C06D10020A360F6
:1048B000A075607509B0BDE8F08F01214FF0000EC2
:1048C000A175217E049A04EBC101CE61A1F820E01C
:1048D000606802F07F05B042C2F3D31CE9B20CD18C
:1048E0004FF0FF33C4F800C02175A360237D043B63
:1048F000022B20D80020A075DCE7206803F07F039E
:104900006045207D18BF84F816E088421CBF002057
:10491000A075012B8CBF0020012001298CBF002134
:10492000012188421CBF0021A175012D00F2D28017
:10493000012BDBD9D1E002F07F02012A0FD8FB6BFB
:1049400002225B6906A93046984706A8FFF712FEC7
:10495000237D032B69D8DFE803F06363040904A80F
:10496000F4E7CC21227E04EBC2021184684AD35CB6
:10497000049D88F8003005F07F02012A88BF0025D9
:10498000237E98BFC5F3C16504EBC303012A83F8F6
:104990002250B3F820A000F2A380FB6B02225B69D7
:1049A00006A93046984700230DF1200B0BF8113D66
:1049B000202206A95846FFF7D9FC1A2207A9FFF7BB
:1049C000D5FC9DF80F30079AB3EB926F0CBF012313
:1049D000002308226375637D03B9A375A37D9BB192
:1049E000BAF1000F15D07B6CB018594286EA000C62
:1049F0001CEA010F1CBF0021A175591E01405B1A62
:104A00009A4584BF0023A37594F816B0BBF1000F3C
:104A100030D095B9E37D002B75D14FF0000B16E037
:104A2000227E04EBC2021084A0E7227E062B04EB58
:104A3000C20210849AD901239AE7012394F819B08D
:104A4000E375BBF1000F24D19D4228D165762AF091
:104A50000300304410441AF0030F7B6C18BF04307D
:104A60005B4286EA0002134203D031463846FFF724
:104A7000DCFEA060A27D12B1236953442361237E32
:104A8000012B0ED801332376B9F1000F0CD1A07D94
:104A900010E7012D37D0032D08BFA376BDE79B4655
:104AA000D5E70023A375F2E7002AF0D0E37D002BC1
:104AB000EDD0BBF1000FEAD1032DE8D0A1684B1C6B
:104AC000E5D0CDF80080012322463846FFF7D6FE18
:104AD000A075DCE7012B3FF609AF0023A37505E7BE
:104AE00000231B2204A906A88DF81830FFF73EFC0E
:104AF0009DF81830049AB3EBD26F0CBF012300234A
:104B00000422637567E7A27D4FF0010BB4E700BF95
:104B100026D3000013B50C460021009321761346DE
:104B200061682246FFF7AAFE18B1E37D03B1A07EBB
:104B3000A075A07D02B010BDF0B50546002687B077
:104B4000EC69013CB44203D80C46204607B0F0BDE6
:104B500001B14C1E6F6C2868EB6B05225B6901A9E3
:104B600007FB0400984701A8FFF746FC0128ECD991
:104B700001362146E4E7F0B504460D46466CE36B8A
:104B8000006887B05B69052201A906FB050098470C
:104B900001A8FFF731FC012804D801A8FFF704FCA5
:104BA00007B0F0BD29462046FFF7C6FF0646676CF2
:104BB0002068E36B05225B6901A907FB06009847A3
:104BC00001A8FFF7F1FB431CEAD0B54238BF013022
:104BD000E6E74369416CDA1D1439B2FBF1F28069F2
:104BE000013203EBC202043000EB4200DA1CB2FBDC
:104BF000F1F203EBC2030333B3FBF1F3023301FB26
:104C000003007047214BD3F8F82102401CD1F0B4C7
:104C1000D3F8FC5103F5FC74641BA410022CD3F8E8
:104C2000006212D0032C29D0012C1AD0184C05F1A7
:104C30000C026468C5E90040C3F8FC21A960336830
:104C40000C333360F0BC704770470422104C64682A
:104C5000686098182C601960C3F8FC013260F0BCE1
:104C600070471A4608240A4F7F682F6042F8080BE5
:104C70005960C3F8FC213460F0BC7047044C646890
:104C8000A960C5E90040C3F8FC31E7E760170020E0
:104C9000001000E0837DDB0701D5808A7047D0E9F2
:104CA00001239B1A44BF828A9B1898B27047000068
:104CB000044B5A6D22B95865A3F85810012070476B
:104CC00000207047C40600200A20D0B50B4CE38CAE
:104CD000584307F0EDFF0646A08C0F4607F0E8FFAB
:104CE0000022074B08F04EF802460B463046394684
:104CF00008F072F908F058FA2083D0BDC4060020ED
:104D00000000F43F40F2E243074A10B514685843EC
:104D100003FB0141536800F5807001EB500118441A
:104D20001160506010BD00BFC40600200022134671
:104D300070B58AB0D910415C03F007042141CC075B
:104D400042BF0AA9891801F8283C03F1010348BFB2
:104D50000132252BEED100230D4DD910415C03F01B
:104D600007042141C90707D5E91881F82A30013322
:104D7000252BF2D10AB070BD93FBF2F102FB113189
:104D80000AAE314411F8286CEC1884F82A60EEE77A
:104D9000C4060020024BD86880B28002704700BF72
:104DA0000080E00F0C4B10B50C4CE41A0C4B1C446B
:104DB00024F4FF5424F01F04FFF7ECFFA04202D8B4
:104DC0000024204610BD2046FFF716FB0128F8D925
:104DD00004F50054F0E700BF10000020040100209B
:104DE000DB1401007FB502466D460D4B03F1100642
:104DF0002C4618685968083303C4B3422546F7D1D6
:104E0000531E04A90F3211F8014D13F8010F84420B
:104E100004D19342F7D1012004B070BD0020FBE71C
:104E2000F8D2000070B51A4D286810BB194B1A4C07
:104E3000E41A1A4B1C4424F4FF5424F01F04FFF717
:104E4000A9FF844214D2666BA6B1FFF7A3FF864286
:104E500010D2FFF79FFF06F1400383420AD8304685
:104E6000FFF7C0FF30B1F36933F0080302D02C60C4
:104E7000286870BD04F59A763046FFF7B3FF20B17D
:104E8000D4F8503133F00803F1D104F50054D6E7DB
:104E9000840100201000002004010020DB14010028
:104EA000BFF34F8F0549064BCA6802F4E062134313
:104EB000CB60BFF34F8F00BFFDE700BF00ED00E008
:104EC0000400FA0528231B68B3F5804F05D21B6B3D
:104ED000B3F5804F01D2DB6B184740F201107047E9
:104EE00028231B68B3F5804F05D21B6BB3F5804FA9
:104EF00001D29B6B184740F20110704728231B68B2
:104F0000B3F5804F03D21968064A914203D00023BB
:104F1000037083607047012202709A689B69426047
:104F2000F7E700BF07B0CD5E10B50C4630B90448B6
:104F3000FFF7E4FF034B23600423A380002010BD90
:104F4000E0010020E401002010B508B3114B1A68FD
:104F5000918881421CD399880024814281BF01211C
:104F6000126899809A6099889A682AB904B19A60FF
:104F70004FF6FF71998009E0884204D00131126830
:104F800089B20124F1E70CB198809A60104610BDF7
:104F90000022FBE72C07002037B50D461446FFF72B
:104FA000D3FFD8B10369828A63B14FF6FE718A429A
:104FB00008D1002069460090ADF80400984738B148
:104FC00003B030BD2B602280286848B92080F7E705
:104FD000009B2B60BDF804302380F5E70120EFE74C
:104FE0000020EDE737B50D461446FFF7ADFF70B171
:104FF000036973B14FF6FE72818A914209D100951F
:10500000ADF8044069460120984703B030BD012047
:10501000FBE70E20F9E7000037B504460379124A92
:105020000333019300F14403009306CA02231430B2
:10503000FFF7DAF8228A237A0192E26804F12C0061
:10504000009294E80600FFF7CFF80546237AA4F80B
:10505000450084F844302279216804F1470008F0C3
:10506000FBF8284603B030BD24D5000070B50E4CC7
:105070000E4B04F1100206460D4692E8030083E849
:1050800003001846FFF7D4F80222094B18341A72AD
:1050900094E80300DE6083E803001D821846BDE843
:1050A0007040FFF7B9BF00BFF8D20000FC16002027
:1050B0000C0500202DE9F041054616468846FFF70D
:1050C000E9FDAB8A181A80B2864228BF06463746E9
:1050D0005FB93EB1D5E901329A4202BFAB7D43F0E0
:1050E0000103AB753046BDE8F081AB8A2C68A86837
:1050F0001C44241AA3B2BB428CBF3C46A4B2224635
:10510000414608F0A9F8AB682968AA8A23440A44F2
:10511000A0449342A7EB0404AB60A7B228BFA960E8
:10512000D6E770B5044615461E4611B3FFF7B2FD2B
:10513000A38A181A80B2012829D9E37D63B1E368F4
:10514000628A1A70120A07D02068A18A01330144CA
:105150008B4228BF0346F4E700236382A368022240
:10516000E36004F112012046FFF7A4FFE37D013361
:10517000E375324629462046FFF79CFF638A0344C5
:105180006382E37D13B9238A0344238270BD002028
:10519000FCE72DE9F041164605468846FFF77AFD03
:1051A000864228BF0646B6B237464FB92EB1AB7D10
:1051B000DA0744BF23F00103AB753046BDE8F08148
:1051C000AB8A2C6869681C44641AA3B2BB428CBFCA
:1051D0003C46A4B22246404608F03EF86B68296877
:1051E000AA8A23440A44A0449342A7EB04046B60B8
:1051F000A7B228BF6960D8E770B51E46038A044687
:105200001546EBB9C27DDAB10123013A0B70C275C4
:1052100000F110010222FFF7BCFFE37D9BB1228A5F
:105220002946B24228BF32462046FFF7B2FF238A02
:105230001B1A2382E37D13B9638A1B1A638270BD34
:1052400000230B70EBE7638A2382E8E770B50E4614
:10525000B0B9FFF7E7FD0446FFF7E4FD60B1094D83
:1052600004F59A7304F5BA742A4618685968083325
:1052700003C2A3421546F7D1034B33600423B38026
:10528000002070BD88010020A801002038B5202230
:1052900004460D460C30002107F0E9FF00234FF0D3
:1052A000FF32A375C4E90025A260E3756376A37697
:1052B000237638BD2DE9F04F0E4600258BB004460D
:1052C0004FF0FF311046C6F3130917469A468DF882
:1052D0001350FFF7DBFF4E456BD12B46E1688B4245
:1052E0000DD0A26802EBC30052F83320551C0DD03C
:1052F000C2F31302914509D141684D1C08D1237CAA
:10530000002B58D147480BB0BDE8F08F0133E6E7DA
:105310003846FFF7BBFF0DF1130301223946204643
:10532000FFF7F8FB0028EAD09DF813308AF8003028
:105330000020E8E72368ED1A636CB5FBF3F542E063
:105340004046FFF7A3FF0DF11303029A41462046A2
:10535000FFF7E0FB8646D8B1B11C03D0D8F8003087
:10536000B34215D19DF813302F4A8AF800303B46DE
:1053700002F1280B9446BCE80300DC451860596034
:10538000624603F10803F5D1F346DCF8000018602B
:10539000D8F8081032E0BBF1000FB3D04E45C7D1AA
:1053A0009AF800307A68314604F10800FFF75EF998
:1053B000BEE7B31CA3D1E56A681CBBD1616A204675
:1053C000FFF7BAFB0546B31C18BF0123DFF858806E
:1053D0000293636A626C0393236805A902FB053B91
:1053E000E36B05225B695846984705A8FFF704F868
:1053F0000BF1140319464FF0000B01934A1C05D022
:10540000636C019A5B424A40134299D02946204678
:10541000FFF792FB039BAB42BDD0BBF1000FBDD1A8
:105420000546D6E70BE000F0D81000202DE9F04F3C
:105430004FF0FF33002589464FF6FF71044600F117
:10544000080689B0C0E90913C362056205633046E6
:10545000FFF76BF92046FFF787F900285ED14FF67A
:10546000FF7BD4F824800027D84514BF454600258B
:10547000E3699F4255D32046FFF776F9002836D1DD
:10548000B84D2046FFF7ABF92CE12368E26B606C66
:10549000576903A9052200FB0530B84703A8FEF7AA
:1054A000ABFF0128074603D0C31EDBB2012B15D882
:1054B00029462046FFF75FFB0246012F94F8503043
:1054C000676C2168009308BF0132434607FB051152
:1054D000E06BFEF7C7FF2046FFF746F90135E369A9
:1054E0009D42D2D32046FFF73FF90028B7D00025D0
:1054F0004FF0FF384FF6FF73C1462F46C4E90853FB
:10550000E3699F4241D3A5EB0805012D60D84FF612
:10551000FF72636A934270D1934DB2E704F1400881
:10552000DDE7636CE26B2068D2F814C003A90522A2
:1055300003FB0500E04703A8FEF75EFF022812D038
:10554000D84518D109F1010294F85030606C2168F7
:10555000009300FB051104F14003E06BFEF782FFAE
:105560002046FFF701F9E3690135B5FBF3F2013796
:1055700003FB12557CE729462046FFF7FCFAB0F101
:10558000FF3F08BF4846421CDEE7636CE26B2068C1
:10559000D2F814C003A9052203FB0700E04703A8C3
:1055A000FEF72AFF824603A8FEF7FEFEBAF1010FBE
:1055B0000CD8484538BF6762804528BF8046854281
:1055C00038BF05468146236A01332362013797E7D6
:1055D0004FF6FF7300256362E3699D4297D2676CC3
:1055E0002068E36B05225B6903A907FB0500984768
:1055F00003A8FEF7D9FE0135EEE7E26B676C206881
:10560000556903A9052207FB0300A84703A8FEF775
:10561000CBFE616C2268636A544D01FB0323143393
:10562000A3624FF0FF332A46E3626FF001010DF1F0
:105630000B032046FFF73EFE002857D1AB68E3621C
:10564000E56A20462946FFF7AFF8206320B9E16AF2
:105650002046FFF7EAF8E06229462046FFF7E5F822
:105660000546A36A9D4243D16369656C2046A5F156
:105670001402DD1CB5FBF2F503EBC5050335B5FBE4
:10568000F2F5FFF7ACF8AB1C9842814642D2616A52
:105690002046FFF751FA01268046033504F1400AFF
:1056A000731E994515D82368676C052207FB0837D8
:1056B000E36B03A95B693846984703A8FEF774FEBD
:1056C00094F850300246009339465346E06BFEF79B
:1056D000C9FE41462046FFF72FFA0136B542804603
:1056E000DED1234D284609B0BDE8F08FA36AA6E7B6
:1056F00029462046FFF758F8236B294603440746FE
:1057000023632046FFF791F80546002FA9D1C4E98D
:105710000B07A6E73046FFF708F8164DA16AE36AC3
:10572000994201D04B1C01D10025AAE62846FFF77B
:10573000ADFD0DF10B03012229462046FFF7EAF9E2
:1057400030B1D5E900129DF80B303046FEF78EFFE0
:10575000A9684A1CE3D169682046FFF766F801464C
:10576000DDE700BF03E000F016E000F0AC10002021
:1057700013E000F0041100202DE9F04F354C85B006
:10578000E369019003F48033029341F671334FEAE9
:10579000820BE363012241F20C038A4607468946E5
:1057A0005E46E2500EB930462FE007F5005525F46D
:1057B000FF5525F01F056761ED1BE269B54228BF63
:1057C0003546520735D4D9F8001009F10402A16119
:1057D000A5F10408B8F1000F0ED104224146226160
:1057E000212007F081FD80B9212007F07DFD60B9FF
:1057F0002F44A944761BD5E708210846039207F0F9
:1058000073FD039A78B10423236142F20C02012153
:10581000104B9950029A0AB10022DA63431C0BD054
:1058200070B10D4809E052F8041BA8F10408A16109
:10583000D0E74FF0FF30E8E7084805B0BDE8F08F4B
:105840005A465146019807F01AFD0028044808BF3F
:105850000020F2E70000034024E000F021E000F027
:1058600010E000F02DE9F04385B088466946044613
:1058700081E80C000C9EBDF83470FFF765FB4FF615
:10588000FE7905460DB1444505D94FF6FF74204613
:1058900005B0BDE8F0832B7A9DF804209A421ED112
:1058A0000099686807F0EBFCC8B9002EEFD02B69AF
:1058B000AA8AA3B14A4509D10290ADF80C0002A909
:1058C000984760B9029BBDF80C2043B1974206D1BE
:1058D0003A461946304607F0D2FC0028D7D00134AA
:1058E0002D68A4B2CEE70000F0B5354C85B0114666
:1058F0004FF486701F461646FFF784F92369254644
:105900002BB94FF48370FFF77DF905B0F0BD002F80
:1059100008BF082E21D16A460221206802F074FBDC
:10592000636860615B7A04F1180123769DF80030AA
:105930000220DA1F53425341627E63F30002029B4E
:105940006276E361BDF802306383236998470122E0
:105950000021206802F060FBD7E7002F08BFB6F5F2
:10596000801F03D1002101209847CEE7002306F4D1
:10597000C052134309D04FF480714FF48170FFF788
:1059800041F9236900210320EEE7002306F4407269
:10599000134308D001214FF48170FFF733F92B69CD
:1059A0000021FF20E0E7002306F0A062134319BFA7
:1059B000012140F2011031464FF48370EDE700BF42
:1059C000381500207FB502238DF80C30064B5A8B1A
:1059D000596903320292186801AA02F019FB019872
:1059E00007B05DF804FB00BF3815002008B50021A2
:1059F0004FF48570FFF706F90022044B03211A616A
:105A000018680122BDE8084002F0CAB83815002025
:105A100013B50D4B01281B880C4CADF80430ADF8C4
:105A2000003002BF02238DF80430042301A920684E
:105A300008BF8DF8003002F05BFA6946206802F07A
:105A400077FA02B010BD00BF18D30000381500204F
:105A500037B50022114C437A00926060D0E90021F2
:105A6000206802F05BFB238CDB050CD563680C4DD2
:105A70001A7A2978914206D0012A06D0022A08D043
:105A800063681B7A2B7003B030BD206802F00BFBFB
:105A9000F6E7206802F01AFBF2E700BF3815002095
:105AA000210700207FB51A4C1948637A0133DBB215
:105AB000272B88BF25236372FFF7CAFF257B627CF3
:105AC000144C15494FF400730232206802F07CFA3E
:105AD0006368124A5B7A05F001052846D65CFFF739
:105AE00097FF42F2107300220293012300928DF877
:105AF0000C30314602AB206802F056F828B1FFF7AF
:105B000075FFFFF7CFFF04B070BD054B2361FAE7C7
:105B1000240100203815002034010020F9D40000B1
:105B20001566000038B50D4611462C680144A41ACC
:105B3000224607F0B3FB2C6038BD00002DE9F84F7A
:105B40009146514C514A524EA41A524A3368144459
:105B500024F4FF54C51A504F24F01F04A542884670
:105B60003D6073D34B4403EB050AFFF71BF908B9FB
:105B7000FFF710F9824569D2306800EB0904B4F5EB
:105B8000806F03D98222454B1A705DE0DFF824B1A3
:105B900041464A46584407F05FFB414B3460D3F816
:105BA00000A09846BAF1000F1DD1B4F5A27F4BD3E7
:105BB0003C4A0BF59A730BF5A27B53F8041B5B452B
:105BC00042F8041BF9D13748FFF70CF910B9334BF1
:105BD0008422D9E71022FF21334807F048FB334ADB
:105BE00005F59A73136004F0030931482C44A4EBC3
:105BF00009040440BAF1000F0BD12840C0F5005150
:105C00002144FFF75FF9C8F8004048B1234B8522D3
:105C1000BAE7A24504D2A4EB0A010AF50050F0E766
:105C200032682449A2EB09023868FFF759F90446A3
:105C300032683B68A2EB0902134415491D483B60DA
:105C4000FFF770FF002CE1D1BDE8F88F1A4B5B68BD
:105C5000B3F1827F114B12D2414600201A78C14421
:105C6000894502D10028EFD08EE711F8016BFF2E95
:105C7000F6D00120A54234BF87228322F0E7A54257
:105C800034BF872283227FE7040100201000002018
:105C900030150020DB1401006C0B0020690B002084
:105CA00034150020E00F002064120020F00F0020C7
:105CB00000E0FFFF30110020EC010020EFF3108026
:105CC00072B67047EFF3108072B6704700B962B6D3
:105CD0007047000010B5034CA01DFFF727F8002304
:105CE000236010BDC00F002010B5094CB4F8071098
:105CF000A079FFF707F8A368B4F80D10054AC3F3BD
:105D00000F239384D184FEF7DFFF0023236010BDAF
:105D1000C00F0020C4060020034B044A9979117576
:105D200000221A60704700BFC00F0020C406002088
:105D3000FFF7CCBF08B5C36800209847024B18682E
:105D4000BDE80840FFF7C2BFB80F00202DE9F04FB3
:105D5000984F89B03B7806468946039203F0FF0BC3
:105D6000002B37D1FFF71EF88246FFF713F8BAF180
:105D7000000F00F01381904BA0F50055D3F8008080
:105D8000C3F800B08D4BA5EB0A0593F834101C4600
:105D900000297FD01A68924540F000815A689542E8
:105DA00040F0FC809968864A914240F0F780DA68BA
:105DB000062A40F0F38040F26C725969914240F03B
:105DC000ED80D96B7F4A914240F0E880C3F818B06B
:105DD00001233B70794D95F83430002B00F0DE80C4
:105DE00046F48028784E012105F13C00FEF7B0FC16
:105DF00006AB324641462846FFF75CFA04460028C7
:105E000040F0D3809DF81830032B00F0CE80022B99
:105E100000F0CE803769E86BFFF78CFF002C40F074
:105E2000BD80039B1B78BB42C0F0B88095F834302E
:105E30000293002B00F0B28001216448FEF788FC39
:105E40000DF11303604A41465C48FFF733FA0446FC
:105E500098B99DF81330012B40F017813369BB428C
:105E6000C0F00D81D6F804B0DFF850A10097009A79
:105E7000DAF83C30002A40F0B180504BD86BFFF785
:105E800059FF002C40F08A80039B1F70029809B0D4
:105E9000BDE8F08F482203F11000D3F838B007F0C6
:105EA000E6F940F26C736361454B04F10800A360AE
:105EB0000623E360C4F838B0C4E900A5FEF735FC5A
:105EC000404B04F14000E36300F098FF00286AD1E2
:105ED000626C002A67D06368B3FBF2F3E36194F865
:105EE0004330002B5AD00023656C84F85030002DCD
:105EF00054D0E369002B51D02268B2FBF5F305FBC7
:105F00001323002B4AD1D4F804A0BAFBF5F305FB08
:105F100013A3002B42D12948FEF75BFE82453DD3F7
:105F200040F634726369CC3B934237D8B5F5007FB5
:105F300034D303212548FEF70BFCD4E90001E36BC1
:105F40001B6898470546E36B0220DB689847D5B984
:105F500041461A48FFF76AFA1D4B0546984204D19C
:105F600041461648FFF762FA054665B9636C134867
:105F7000A3F11408236A03FB08F8FEF72AFE154B69
:105F8000804538BF1D46B5FA85F3E06B5B0984F8A0
:105F90003430FFF7CFFE002D3FF41AAF0023039AF1
:105FA0000293137072E7002398E700270A4C32E748
:105FB000042730E7241000200004002028100020CF
:105FC000F40F0020DCD400008010002064100020BA
:105FD00013E000F002E000F00BE000F05B6901224A
:105FE00005A9584698472C49059B0968C3F3D31265
:105FF000914246D103F07F03012B30D905A8FEF76B
:10600000B9FA4FF004080646009B9E423BD8B208FE
:10601000D84432D0EB6B49465B694046984726F03E
:10602000030306F00302019298449944019B6BB16B
:10603000DAF83C3001225B6906A940469847484699
:10604000019A06A907F008F9019B9944009B59465B
:106050009B1B50460093FEF7E8FB834607E7DAF800
:106060003C3002225B6906A95846984706A8FEF70D
:1060700081FA4FF008080646C6E70196D6E7074CB6
:10608000FBE6074CF9E6074CF7E6074C074A022BFC
:1060900008BF1446F1E600BF8010002011E000F0B8
:1060A00022E000F023E000F00BE000F00CE000F054
:1060B0002DE9F04106460D4614460C4F0CB9BDE8DB
:1060C000F081EFF3108872B623462A4631463846EF
:1060D000FFF727F803464046FFF7F8FD002BEDD009
:1060E000E41AA4B21D440026E8E700BF9C0E00207D
:1060F000002313B501F1080421461A46ADF8043017
:10610000ADF80600083151F8100C70B90BB1ADF8BC
:106110000420042201200DEB02010834FFF7C8FF20
:1061200054F8101C39B902B010BD51F80C3C1A4497
:1061300092B20123E6E734F80C2C0020EDE70000D2
:106140007FB500230130CDE90433064BCDE90101D1
:106150006946042000930392FFF7CAFF07B05DF879
:1061600004FB00BFCE0100202822136810B5B3F550
:10617000804F0ED2EFF3108072B6002407490B78DF
:106180000C70FFF7A3FD3BB1BDE8104013681B6A1C
:1061900018474FF4817010BD1846FCE7BC0F002073
:1061A00001282DE9F34740F03A818B88012B40F01C
:1061B00038810B681B7813BB9C4A9D4C13609D4A29
:1061C00013609D4A13609D4A13609D4A13609D4A67
:1061D00013709D4A13609D4A13602278022A01D1F0
:1061E000FFF7C2FF012323700024994B1C70994BC9
:1061F0001C70994B1C70204602B0BDE8F087032B41
:1062000040F0FA80944B8A4E1C78002C46D13378AB
:10621000002B00F0E5808B4B1B78082B7CD1834A48
:10622000136890466BB928252B68B3F5804F5ED371
:106230004FF4017041F20803984200F0D3808024AB
:106240002CE013F003070EBF2746C7F10407FFB287
:1062500003EB070ABAF5806F00F2C8807F483A4620
:106260001844FF2107F003F8774B724AC8F800A0E2
:1062700015681A68994615445544DFF8C4A125F4F9
:10628000FF55DAF8000025F01F0585420BD9291AC1
:1062900000F50050FEF716FE18B185240023337078
:1062A000A9E7CAF8005028231B68B3F5804F1BD21A
:1062B0001B6BB3F5804F17D21D69684AD8F80030C0
:1062C000D9F800100020A8470546D9F80030D8F8C2
:1062D000002056491344DF1B6048C9F80070FFF7DF
:1062E00021FC002D9FD0D8E74FF48175EDE7FDF735
:1062F000CFFF00289ED12B680190B3F5804F07D2C5
:106300001B6BB3F5804F03D29B69012101A898470D
:106310000122504B1A70C1E7002B65D04C4B1B7803
:10632000002B8CD0494F3B6843B9444B10224C4959
:106330001868FEF7D5FD0028B0D0AEE713F00302D1
:106340001CBFC2F10402D2B203EB0208B8F5806FA1
:106350004CD84448FF21184406F089FF424A434B79
:10636000C7F800809B1A424A1344334A23F4FF5370
:10637000156823F01F03AB42914639D8A844FEF7B5
:1063800011FD08B9FEF706FD804533D23B68DFF802
:10639000B0801D4425F4FF55D8F8000025F01F05F6
:1063A000854209D9291A00F50050FEF78BFD002817
:1063B0007FF473AFC8F800503A682A49D9F8000052
:1063C000FEF78EFD0546D9F800303A681F491344A0
:1063D0002448C9F80030FFF7A5FB002DA5D05CE7E5
:1063E00081245BE7862459E7842457E7822455E714
:1063F000872453E7832451E7042B14D1132302216C
:106400001C4C637020462170FEF752FC1A4A1B4B4D
:10641000128905329A801A4A1A6062789A710024A9
:10642000E9E60D24E7E60624E5E600BF640B00205C
:106430006A0B00205C1700206C0B0020F00F00207E
:1064400034150020C8010020700B002030150020FA
:10645000680B0020D5010020690B00206407002094
:10646000E00F002030110020100000200401002067
:10647000DB140100D40F0020C4060020C00F002050
:10648000116B000028231A6810B5B2F5804F0ED2A8
:10649000EFF3108072B60124074A11781470FFF7E9
:1064A00015FC39B9BDE810401B68DB6918474FF48B
:1064B000817010BD0020FCE7BC0F00200B4A08B51E
:1064C000937E4FF0005443F0400393760022084B34
:1064D0001A70084B1B782BB1FFF7D4FF064B2360D3
:1064E000FEF7DEFC2360FEF7DBFC00BFC4060020E5
:1064F00020070020D501002002020FF010B5134C38
:10650000A37E5B0621D4FFF771FA40F2E242252018
:106510002168A38C02FB031294F84F102260A27A28
:106520000A4492FBF0F100FB11220A21A272228997
:1065300001322281626801FB03236360238B5A1EB0
:10654000228313B90820FFF7B9FF10BDC40600204D
:106550002DE9FF41294C40F601002189FEF752FB4D
:10656000A37E13F0400242D143F0010303F0FD0388
:1065700062F38203224AA376136823B121899288A9
:10658000914200D19847A37A1E4E234493F82A30B3
:106590001D486375FFF75CFAD4E90054736864081A
:1065A0005B7A1A4A2F1B012012F803806435FFF72B
:1065B0002FFA00970027254401246A4641463B46AE
:1065C000306802958DF804708DF80C708DF80D40D0
:1065D0008DF80E4001F0ECFA054622463946306847
:1065E00001F01AFD35B1FFF789FFFFF7B1FF04B0E5
:1065F000BDE8F081064B3361F9E700BFC406002017
:10660000C00F002038150020D0060020F9D400006B
:106610007967000002282DE9F0411FD002D8012837
:1066200007D0FEE7032800F09C80FF2800F0998047
:10663000F7E74D4C237B980707D5FFF7D7F9FFF70E
:1066400031FA237B6FF341032373237B990701D432
:10665000DA0764D4BDE8F041FFF724BA4B784C6800
:10666000DB077ED5227802F00F07032F59D0052FC4
:1066700077D13E4904F108008B7B03F00103B3EBB3
:10668000D21F4CD10622083106F0F9FD80460028C1
:1066900045D1FFF7ABF9FFF795F9354D4146064671
:1066A0005C22284606F0E3FDAB7E2F8343F02003F7
:1066B000AB76627E237E012743EA0223AB84627FAE
:1066C000237F04F11E0043EA0223EB8494F8233075
:1066D000C3F3040385F84F3094F82330C3F3421317
:1066E00085F850301B232B85FEF720FBD4F80E30A5
:1066F000E27CEB60A37C2E6043EA0223227D2F75AF
:1067000043EA02432B6195F84F30607DAB72E18A1A
:106710003944FEF7F7FAFFF71BFF164B1F70BDE871
:10672000F081124D04F10800AB7B03F00103B3EBE1
:10673000D21FF4D1062205F1080106F0A0FD0028C1
:10674000EDD1094C4FF4007394F8392004F138016D
:106750000232286801F038FC237B43F002032373E4
:10676000DDE7FFF743F975E7240100203815002025
:10677000C40600202007002002282DE9F7430F4619
:106780000BD003D8012800F0B281FEE7032800F007
:10679000B681FF2800F0B381F7E748784E6810F023
:1067A0000104BA4D61D14FF0FF3140F60300FEF70E
:1067B00029FA2646AB7EB64C13F0200F12D0696D35
:1067C0006FF34513AB76002900F09F80237895F88E
:1067D000582043F0030323706270A01C06F03CFDB8
:1067E00000236B65AB48FEF755FA003018BF012057
:1067F000AA7E237860F34102C2F30011AA7661F306
:106800008203C2F3C00262F3C30360F30413237074
:10681000218840F60200FEF7F5F96278DFF89882E9
:1068200002324FF400739A49D2B2D8F8000001F056
:10683000CBFBAB7E7C68D90709D56FF30003AB7641
:1068400000236B60FFF7BEF82860FEF73DFA4EB1FB
:10685000237803F00303022B00F031816DD8012B64
:1068600000F02C8103B0BDE8F083318840F60300CE
:10687000FEF7C8F93378A97EC3F3001396F80080B9
:1068800063F38201A976C8F3C003C1F300118B4200
:1068900006D108F00303022B05D019D8012B31D003
:1068A0000026344615E0A146767896B17A48848A67
:1068B000FEF7F0F9201A80B2B9F1000F04D00228D7
:1068C00092BF0020023880B286428CBF002401248F
:1068D0002646AB7EC8F38008C3F3C002904507D0BC
:1068E00082F0010262F3C303DBB243F02003AB7614
:1068F000002C3FF45FAFAB7E81F0010161F3041324
:10690000AB7657E74FF00009CEE795F82830A21C88
:106910000DF107015F48FEF76FFCC0B258B19DF85A
:106920000730002B0CBF012202222378607062F333
:106930000103237056E70122F7E7A378022B65D005
:1069400011D8002B4DD0012B38D0544A127822B1E7
:10695000162B7FD0182B00F08C8007225048022184
:106960000270437027E00C2B18D0142B56D0082B44
:10697000EBD1B8F8201054F8035FC8B205EA000262
:10698000474801F47F4142EA0105044609210023FA
:1069900004F8011BC0F8015063600CE040484FF060
:1069A000FF320370012382704370022203710023BF
:1069B0000621C2704371FEF77BF953E7617A237AAF
:1069C000384A43EA012393801346374943F8061BAC
:1069D00054F8031FC2F80610A2889A80A2799A710F
:1069E00040E7627B237B2F4943EA02238B800B46DF
:1069F0002E4A43F8062B54F8032FC1F8062062688C
:106A00005A6022891A81A27A9A722BE72A89254B29
:106A100005329A80264A1A60E278E0E7B4F8053039
:106A2000B4F80320DB08934228BF13462B851523B7
:106A30001B4800216FF004046FF027020370072346
:106A4000817081714470C27003714471C2710372AC
:106A50000921B0E72279E3781148134003F00303DA
:106A6000022B18BF01231722437002708370032189
:106A7000A1E76279A1790B4B42EA01229A800D4A83
:106A80001A60D4F80320C3F80620EBE6C406002001
:106A9000641900209C0E0020840D0020B40F0020FB
:106AA000D40F0020C00F0020D55C0000E95C00007E
:106AB000116B0000195D00003815002000261248F7
:106AC000A51C818AFEF7E6F8081A647880B226B120
:106AD000022892BF0020023880B2A3B283423FF660
:106AE000C1AE2A4631460848FEF71BFBBAE6074B03
:106AF0009B7E9A073FF5B6AE5B073FF5B3AEFFF757
:106B0000FDFCFFF725FDADE6840D0020C406002046
:106B100008B5024B9879FFF7D1FC00BFC00F0020E9
:106B20002DE9F04F01288BB040F038818A88002A87
:106B300000F036819C4D95F800B0BBF1000F00F0DD
:106B400031819A4B1C7898465CB999480678824600
:106B50003EB9984E30681718B7F5806F05D9822472
:106B60001C7020460BB0BDE8F08FDFF86492096816
:106B7000484406F071FBBBF1020F376035D0032F9C
:106B8000EFD98D4F3846FEF7B9F93B78D9F8002098
:106B9000012B8A4B5AD19A425AD1BB68DB035FD58D
:106BA00002232B70FFF76EFC28231B68B3F5804F80
:106BB00007D21B6BB3F5804F03D29B6803A900205B
:106BC000984703987E4B7F4A186020F4FF5323F0C8
:106BD0001F034FF400511360FEF774F988BBFEF7F2
:106BE00021F940BB2B78022BBBD17749774F08782E
:106BF0003A6810F0F70F3368894640F0A980704971
:106C000003F0030B0D681D4415446E4BA5EB0B05FB
:106C100025F4FF55186825F01F058542019322D9F8
:106C2000291A00F50050FEF74DF9019BD0B18524DB
:106C300088F8004095E74FF40051FEF743F900282B
:106C4000D0D0852388F800301C468AE79A4207D0C6
:106C5000842388F8003098F80030002B81D0F1E7C9
:106C60008623F6E71D6028231B68B3F5804F6CD29E
:106C70001A6BB2F5804F68D233681569A3EB0B032A
:106C8000534A39680020A847054632683B68A2EBA2
:106C90000B02134447494E483B60FEF743FF002D6B
:106CA000C5D199F80030002B7FF45BAF3B687F2B98
:106CB0007FF757AF02A903A8FDF7CAFA10B9039BE3
:106CC00089F8003099F8003013F0F70F3FF449AF1E
:106CD00028252A683B68B2F5804FA8D2126BB2F51E
:106CE000804FA4D20021D2F80C900846384AC847F9
:106CF00000289CD13B68374F3360324B1860364BCD
:106D00007B602B68B3F5804F91D29B6A4FF4007182
:106D10003248984700288AD12A683368B2F5804FF4
:106D200039D2D56A39462A4A2C48A84705463268DE
:106D300020492748FEF7F6FE40F203239D421DD06E
:106D400040F201239D4224D10BE74FF481759CE76B
:106D50001A443A6028221268B2F5804F12D2D56ADE
:106D60001C491B4A1D48A847054632681149184866
:106D7000FEF7D8FE40F203239D4206D101238AF894
:106D80000030EEE640F20225EFE740F201239D429B
:106D900087D080244CE740F20225C8E70024E0E6D3
:106DA0000D24DEE68124DCE66A0B0020690B00205E
:106DB000680B0020640B0020EC010020EB17A603F9
:106DC0005C17002034150020C8010020700B002043
:106DD00064070020740B00203D5B0000840B002042
:106DE000054B5B69C3F38512827003F03F021B0BF6
:106DF00042700370704700BF00C0074037B50446BB
:106E000001A8FFF7EDFF9DF80630012123804FF424
:106E100080730020084A638093680A3303F01F03DD
:106E200001FA03F36360956CD36C40EA0502C4E990
:106E3000022303B030BD00BF0080E00FFEE700007A
:106E40000048704700F04902084B1B6F03F007032E
:106E5000022B04D0032B06D0012B02D0FEE70448FE
:106E60007047044870470448704700BF00800040E6
:106E7000C0EA2101002D310100F0490208B5FFF7F9
:106E8000E3FF044B1B6FC3F301330133B0FBF3F09B
:106E900008BD00BF00800040044B054A9A60D3F84B
:106EA000882042F47002C3F88820704700ED00E0AB
:106EB00000400000000000004FF040232DE9804812
:106EC000D3F89430ADB013F0400F24AF40F01E83E0
:106ED0004FF00053002238461A60FEF70FF8FDF716
:106EE000A1FF0546002840F01A833846FFF778FFD7
:106EF000B94B9B6DDE0318D4B84A136823F4FF0323
:106F000023F4FE4343F4BC1343F4A063136052F82C
:106F1000043C23F4704343F4404342F8043C52F8E9
:106F2000043C43F4E06342F8043C9DF89130012BAB
:106F30000FD19DF8903063B94FF000531B68A84BF8
:106F40001B68A84B1B68A84B1B68A84B1B68A84B69
:106F50001B68A84B1B6F03F00703032B3CD045F6BF
:106F60000E029D4B0221C3F8802041F22802995065
:106F700042F22802012199509A6DD503FCD49E4A11
:106F80009E491A619E4A9A611A6A22F00D021A629B
:106F90009A6A22F0330242F001029A628E4A134644
:106FA000906D31EA0000FBD141F2280102205050DF
:106FB0009A6D5400FCD41A694FF0004122F470021B
:106FC00042F400121A6141F21802995042F228026A
:106FD000022199500121995041F228034FF00108F4
:106FE0007D4D844CAE6A874845F80380FDF77EF9F5
:106FF000236F06F0020643F480632367236F23F0B8
:10700000070343F003032367FFF738FFFDF76EF92B
:10701000FFF734FF7C4A236F904294BF0020012089
:1070200023F4806343EA802323671EB942F22803D6
:1070300045F8038001236F4A744DC2F880326B60BB
:10704000734B04241B6C2CAA2B66002302F8984D6A
:1070500008A935200893FEF779FE06238DF817302E
:10706000089B8DF8164013F4803F0AAC00F0F782BD
:107070002B6E8DF828302B6E8DF829302B6E8DF805
:107080002A302B6E8DF82B302B6E8DF82C302B6E1A
:1070900063F03F038DF82D309DF82E3043F001034F
:1070A0008DF82E305B4B5C6000244FF480715A4B9E
:1070B0005A4A5961C3E900229A601C82584A594BC6
:1070C0003846C3E900229A605961202221461C8279
:1070D00006F0CDF8B42101238DF8931052498DF8B4
:1070E000923025918DF89A305A218DF8A2304023A4
:1070F00008228DF89B108DF8A3304C494C4B384634
:107100008DF891208DF899208DF8A1202791299351
:1071100000F0C2FC4748484B21460360474B484EAD
:10712000436000F027FD2AA3D3E900233060CDE9B6
:1071300000234FF0FF334FF0FF3200F0FDFE02223C
:107140004FF0FF31306800F001FF3E4B3946249389
:10715000306803F500332694259300F073FD3A4D13
:10716000394930682C7000F01DFF10B10134032C38
:10717000F6D1284C306800F083FFB4F9002029785C
:10718000306800F099FC0146306800F0FBFE64684E
:10719000DFF8C0A0002C40F07C825046FDF7D0F80C
:1071A000B37B64F30003B3731022284B284C83F89D
:1071B0002123002183F8222304F10A0083F82623E7
:1071C00083F8252383F8232346E000BFAFF3008034
:1071D000081B10050000000000C0004034C0004043
:1071E000004000200080002000C00020000001209E
:1071F00000400120008000402008B00B0300014047
:107200003C8C8C0300B4C40480F0FA0200C001A8D6
:107210000080E00FD80100209C0E0020B40E00205A
:107220009C0D0020840D002030D30000B8D3000056
:1072300074D3000068150020E95800005C15002098
:10724000381500203C0094001200002000E100E00E
:10725000240100204015002083F8202383F82423F4
:10726000562206F004F8B848B84B4FF49072C4E9BF
:1072700000032523637201233284B54A23721370FD
:107280000023DFF87083B34DC8F800301B232B8038
:107290001E232CAA02F89B3D14A93620FEF756FDAA
:1072A00020232CAA02F89C3D39463920FEF74EFDDA
:1072B00080BBA94B9DF8152018681B7924903B7161
:1072C000002A00F0EF811B2A28BF1B22531D8DF8D6
:1072D000143014A9531C0DF195008DF8933005F06E
:1072E000BBFF1CA8FDF72CF89C4A9DF814301288AF
:1072F0002CA9FA529A1C51FA82F200211C9802F829
:10730000201CBDF87410093342F81F0C22F81B1C16
:107310008DF8143020232CAA02F89D3D1CA93A2098
:10732000FEF714FD48B98E4B1A889B78ADF8702093
:107330008DF8723003238DF8133000224FF00209CC
:10734000884B8948C3E90022884B80F80490036089
:10735000FCF76EFF8648874B80F80490036010238B
:107360000372FDF759FE8448844B80F80490036053
:10737000834B80F80890C360A0F81090CDE90039E5
:107380004B4690E806001430FCF72EFF9DF81510D0
:10739000002900F0988114A84FF01009FDF766FE4F
:1073A0007848794B80F804900360FCF741FF7748F8
:1073B000774B4FF6FE7B03600823764AA0F810B0A7
:1073C000C26080F8049003720393FDF725FE7248B3
:1073D000724AA0F810B002600C224FF0020B027249
:1073E0006F4A80F80490C260FDF716FE6D486E4A41
:1073F000039B02606D4A80F80490C260038280F8AB
:1074000008B0FDF709FE6A486A4B80F804900360F3
:10741000694B80F808B0C36001230382FDF7FCFDCF
:107420006648674B80F804900360664B80F808B0AC
:10743000C3604FF6FE730382FDF7EEFD6248634BB7
:1074400080F804900360624B80F808B0C3604FF688
:10745000FE730382FDF7E0FD5E4B424A1A604FF671
:10746000FF729A809DF81420202A05D8931D63741A
:107470003946594805F0F0FE9DF81320202A06D819
:10748000931D84F839301CA9544805F0E5FEFEF739
:10749000ADFA237BB27B43F001032373237C02F01C
:1074A000010203F0F00362F386132374637C0BB9CB
:1074B00006236374BAF80410494BB068C4F812008C
:1074C0009980042194F8383061F3030362F3861342
:1074D00084F8383094F8393013B9062384F83930F9
:1074E000B068BAF804203F4BC4F83A009A80FEF71F
:1074F000D9FA3D4C3D4B1B78002B40F024813C4A8F
:10750000136923F00403136130BFF3E74FF0005316
:107510001A68022A7FF4DCAC00221A60E5E49DF8C8
:107520009030012B40F09380446BFEF7ABFF269B1D
:107530005B0761D5FDF776FC28231B68B3F5804F08
:1075400071D3FEF711FED0E4D6BE898E5555550095
:10755000B40F0020CA01002044D4000054D400001D
:1075600057D40000240700201C1700205BD4000023
:10757000640500205ED400003807002061D40000BC
:107580001AD300003C17002064D40000BC05002082
:1075900075D40000A16100001406002086D400000C
:1075A000216B00005C04002097D40000FCD3000095
:1075B0006C060020A8D40000F8D40000B404002019
:1075C000B9D40000294F000004040020CAD40000F0
:1075D0004D5200002C0700203C01002064010020D7
:1075E000360100205E010020F80100202007002065
:1075F00000ED00E0FC03002084B1FDF7CBFB8442EA
:107600000CD2FDF7C7FB04F14003834206D863693F
:1076100023B12046FDF7E6FB00288BD105F59A70D3
:10762000FDF7E0FB01E05B6A98470446FEF79CFD2E
:10763000002C3FF45AACFDF7F5FB0446FDF7F2FBD6
:10764000B64B986023689D46636898474DE400F503
:107650009A70FDF7C7FB00283FF447ACEBE70DF14C
:10766000170221462C20FEF771FB00283FF41CADC9
:107670000DF1160207A93C20FEF768FB9DF82E309D
:1076800020B19DF81C2062F3000309E560F30003BC
:1076900006E52068B060A288A379AAF804208AF8D9
:1076A000063081E50E238DF814300A238DF89330CF
:1076B0009B4B1A68CDF895205A681B7ACDF8992013
:1076C0008DF89D300DE60921954865E6EFF31086AB
:1076D00072B600230DF119011A469248FDF78CFD90
:1076E0003046FEF7F3FA9DF8193013B10023C8F8BD
:1076F0000030D8F80020EFF3108672B6C2F501739F
:107700009BB222440DF119018648FDF775FD034631
:107710003046FEF7DBFAD8F8000018440328C8F812
:10772000000010D9B4F8009009F1040398420AD37C
:1077300006D86088002704280BD0062800F0838133
:107740000023C8F800307748FDF7A4FA0028BDD11F
:10775000D5E6227909F1FF33082A6F809BB200F049
:10776000E9801BD8042A704E37D0062A4CD0022A52
:107770001AD1022B40F06381B4F805700022B7F5EE
:10778000007F28BF4FF40077032311460220337097
:10779000A6F80170FEF7D4FC2F80D1E7102A00F084
:1077A000FE8003D80A2A6ED0062292E0122A00F048
:1077B0009980522AF8D1B4F80500FDF7C5FB0028DE
:1077C000BED0037B5B07BBD5A9F1030292B2574938
:1077D000B4F80500FDF706FCB2E7042B79D1B4F844
:1077E0000570B8B2FDF7B0FB58B1027A4168022AC1
:1077F0000CBF0123022305207370307077800320B3
:107800005FE06F800A2264E04FF00203DFF820B1EE
:10781000A9F10702B4F80500B4F8071092B28DF888
:1078200044300BF102030093CDF840B0019210AB4D
:107830000CCBFEF717F84FF6FF7A5045814604D17E
:107840006368C3F30F236B80DCE74FF00203CDE9DD
:1078500000778DF83430CDF830B001300CAB0CCB64
:10786000514680B2FDF7FEFF072350451CBF00F1D3
:10787000FF3080B23370A6F80190A6F80300002212
:10788000042011461DE0022B40F0D980B4F8050019
:10789000FDF75AFB00283DD0037B990714D52B88B0
:1078A0002CAA013B22F88C3D10A9B4F80500FDF785
:1078B00073FB024648B90B211B4BBDF824201970FD
:1078C0001099FEF73DFC3BE702226368C3F30F23E8
:1078D0006B800126144B207969881E70587059807E
:1078E0001A71CCE7B4F80500FDF72EFB90B1037BCD
:1078F0001A0711D5A9F1030292B20C49B4F8050098
:10790000FDF770FB02460028DFD11321064B1970EA
:107910000146D6E70122D8E70322D6E700ED00E0D2
:107920004AD40000840D0020CE010020FF01002079
:1079300001020020A9F1050B1FFA8BFBBBF1020F1E
:1079400002D0BBF1100F7CD1444BB4F80500B4F861
:10795000071010930023CDE900338DF844B010AB2D
:107960000CCBFDF77FFF4FF6FF73984206463FF4BE
:1079700067AF2B882CAA043B22F8963D09A9FDF796
:107980000BFB024608B16E80A3E70921344BBDF81A
:107990001A201970911C59705E8009992FE7A9F17E
:1079A000050B1FFA8BFBBBF1020F02D0BBF1100FCE
:1079B00047D10027B4F80500B4F80710DFF89CA001
:1079C000CDE900775FFA8BFBCDF840A08DF844B08D
:1079D00010AB0CCBFDF746FF4FF6FF794845064646
:1079E0003FF42EAFCDE90077CDF838A08DF83CB04C
:1079F00001300EAB0CCB494680B2FDF733FF074692
:107A00002B8848452CAAA3F1060318BF00F1FF37C5
:107A100022F8963D09A9304618BFBFB2FDF7BCFA5F
:107A200002460028AFD111210D4BBDF81A20197064
:107A3000111D59705E809F800999052041E704223D
:107A400047E7024645E7074B10A910930223CDE90B
:107A500012771193FEF74CFB72E600BF0102002083
:107A6000CE01002010000020FEE7000008B5FFF75F
:107A700013FA064A064B07498B4201D3FCF77AFBFF
:107A800052F8040F43F8040BF6E700BF98F4000027
:107A9000100000200401002038B50446054D00F018
:107AA00091FA0FCC0FC594E80F0085E80F00002075
:107AB00038BD00BF641A002047F6FF739A4270B5C4
:107AC00052D0032952D82A4B13F831001D46012801
:107AD0004FEAC1010CD10B44D878013800B220B173
:107AE000596831F910109142F7DC0130C0B270BD15
:107AF0000B4458680028FAD0B0F90040944204DBE7
:107B0000B0F902409442B8BF14462822A4F1C80339
:107B100093FBF2F3294449785B424A1E1BB293421D
:107B2000A8BF13464FF47A7600EBC305EA88AD6828
:107B3000013314FB02521BB222EAE27202F5FA721E
:107B40008B42B2FBF6F204DA00EBC305AD88954236
:107B5000EAD200EBC30333F8040C904228BF10466E
:107B6000002808BF0120C1E7FF20C0E70020BEE7D2
:107B7000641A002038B504460D46074B186000F023
:107B80003BF82946204600F027F8021C18BF0122C6
:107B9000024B1A7038BD00BF841A0020881A0020DA
:107BA0000846114600F03CB800B10C3001F0B0B905
:107BB00000B10C3000F0CEB97047431E012B03D941
:107BC000031F5842584170470120704708B500F024
:107BD0006BFB0128FBD108BD38B504460D460021DA
:107BE00000F0CEF92946204601F028F800280CBF05
:107BF0002046002038BD000010B5044600F01CFBF4
:107C00003CB1054A236C002B08BF1346034A13609E
:107C100010BD636BFFDE00BFB97B000018000020C1
:107C200010B50C4600F02AFB1CB1BDE81040FFF770
:107C3000CDBF10BD00B10C3000F094BC00B10C30D1
:107C400000F0A8BC00B10C3001F054B8836A2DE9F3
:107C5000F04704460F4613B1C3888B4232D0666AA0
:107C60009EB3B3688BB3F3687BB300204FF0180961
:107C70008046034647F6FF7AF268424502D8EBB9E0
:107C8000012020E0B56809FB0855EA89BA4210D8FE
:107C90002A8ABA420DD3B5F9122052450CD094F875
:107CA0006810A4F10C00FFF707FFE37883422B462E
:107CB00004D908F10108DFE7FF20F6E7E780A362B7
:107CC00084F871000020BDE8F0870320FBE7000086
:107CD0002DE9F74F4A4D04468A4690469B4601F0EF
:107CE0002DFA2E8801F04AFA464F009578B100230C
:107CF0003B6001F03BFAA36A3A6893420CD15BB156
:107D0000564509D10025284603B0BDE8F08FB8F1EB
:107D1000000FF0D03860EEE700F0C6FA012804D07A
:107D2000012000F0ABFAFFF751FFD4E90912364801
:107D300003680190002B5BD08B4245D13868002846
:107D400042D0904240D14FF00009B6EB0A0618BF6E
:107D500001264D46E07894F871105A46814228BFBA
:107D60000146204600F086FCBDB9626A019B1A609C
:107D7000A26A3A60B8F1000F03D116B9B9F1000F49
:107D8000C0D0009BB8F1000F14BF414649462046C1
:107D9000C3F800A000F072FE0546B8F1000F02D152
:107DA000B9F1000FAFD0B5FA85F03321400900F0EA
:107DB0004FF95946204600F0E9FE144BA16A1B68B2
:107DC000A4F10C0098479EE71D688DB108688542B4
:107DD0000ED13968126811B1096891420BD0596807
:107DE000204600F035FE4FF0010905460026B1E7B8
:107DF00012680968F4E700264FF001093546A9E743
:107E00008C1A0020941A0020901A002018000020DC
:107E1000F8B505460E46FDF751FF314607462846A0
:107E2000FFF714FF044630B90346024631462846A0
:107E3000FFF74EFF04463846FDF748FF2046F8BDE1
:107E4000F8B50F1C18BF01270D46064600241F2158
:107E5000384600F0FDF8284601F050FE38461F2154
:107E60007562B46200F0F4F8182723464FF6FF71EC
:107E7000E868DAB282420BD30C4600230A4A214654
:107E800013600A4A30461360FFF7C2FF2046F8BD70
:107E9000AC6807FB0242D4898C4202D2002CECD0A1
:107EA00021460133E5E700BF901A0020941A002014
:107EB000C088704738B50A78054610460C46FFF76B
:107EC0007CFE88B149780846FFF777FE60B10A4327
:107ED000520709D400F0E8F9430707D421462846A1
:107EE000BDE8384000F084BB012038BD0220FCE72B
:107EF00000B10C30FFF7DEBF38B5054608780C46F8
:107F0000FFF75BFE80B14A781046FFF756FE58B186
:107F1000042A09D000F0C8F9830707D4214628466F
:107F2000BDE8384000F072BB012038BD0220FCE7FC
:107F300000B10C30FFF7E0BF30B4DDE9024500B11D
:107F40000C30CDE9024530BC00F02AB900B10C304C
:107F500000F060BA70B504460D46164600F0A4F96C
:107F600001280BD129462046FFF752FF38B9324687
:107F700029462046BDE8704000F0C4B9022070BD1B
:107F800001F004B938B5044600200D4601F0B4FDF7
:107F900034B104F10C002946BDE8384000F090BB34
:107FA0002046F8E738B5044648880D4601F0A4FDA0
:107FB00034B104F10C002946BDE8384000F036BB6E
:107FC0002046F8E701F099BD00B10C3000F09BBCF1
:107FD00000B10C3000F0B1BC4FF4007307B502AA39
:107FE00022F8023D0749FFF7F3FFBDF80630B3F56D
:107FF000007F05D1022808BF002003B05DF804FB14
:108000000120FAE7981A00200846114600F0AABBA2
:1080100000B10C3000F060BC38B5154658B100F125
:108020000C0411B1204600F09FFC35B12046BDE89C
:10803000384000F0E1BC0446F3E738BD024B19605C
:10804000024B1860FEE700BF1C000020200000204B
:1080500008B528B9034B1960034B1868FFF7EEFF0A
:1080600008BD00BF1C000020841A002010B5044683
:1080700001F0DCF82046BDE81040032100F0E8B82C
:1080800000B10C30FFF7F2BF10B54378044643B19E
:1080900000F00AF9012804D12046BDE8104001F0A3
:1080A000B1B8022010BD00B10C30FFF7EDBF10B524
:1080B0004378044643B100F0F7F8012804D1204684
:1080C000BDE8104001F08AB8022010BD00B10C30AC
:1080D000FFF7EDBF70B51E46437804461546DBB189
:1080E00091FAA1F1080A00F09FFAEB0703D52046A8
:1080F00001F0C4F870B1AA20294601F0C7F89DF834
:108100001030204683F001033246442101F024F967
:10811000002070BD5520EFE70220FAE710B49DF86B
:1081200004400C3001945DF8044BFFF7D3BF704757
:10813000F7B506460C46174D39B90A46072104F033
:1081400099FAC5E9004403B0F0BD0727124B02A815
:108150001F600B792B704B79012140F8043D04F02E
:10816000A5FA019BC2B2D34000F00F0040EA031011
:108170006870A379094AAB70E3793946EB702368DC
:1081800030466B602379013313623A4604F072FA89
:10819000D9E700BF141F00B00C6000A8004000A881
:1081A0002DE9F34BDDE90A67D0E922890446002571
:1081B00088EA060089EA070101EA030C00EA020BDB
:1081C0008CEA09018BEA0800C4E9220122F00100CF
:1081D00006EA000807EA03091946CDE9005549F007
:1081E000080348F0005203F01DFB2378DB071CD581
:1081F000D4E92223002003F0080150EA010314D03F
:108200004FF48031204604F064FAD4E9222302EAD4
:10821000000503EA010655EA060306D005492A4689
:1082200009683346A4F10C008847002002B0BDE87D
:10823000F08B00BF24000020034A0368002B08BF16
:108240001346024A136070472F810000240000206B
:1082500031F00F0003BF054A01F00F01D368012080
:1082600002BF23F00F030B43D36070471C1F00B005
:10827000014B0020196170471C1F00B0032811D862
:10828000DFE800F00E02070A00221146012003F089
:10829000AFBE00220121F9E7012211461046F6E7A0
:1082A0000022FAE7704700000F4BDB68C3F303635B
:1082B000013B0B2B0DD8DFE803F014140614141443
:1082C00014080A0808080320704704207047052096
:1082D0007047064B5B6913F0060F14BF04200120A2
:1082E00070470220704700BF000002A800C001A82C
:1082F000034B1B6F13F0A00F0CBF01200020704731
:10830000000002A87FB515462B79B0F85020012B4C
:1083100029681BD18A421ED8891A1A1C18BF01224B
:108320002C7B022C19D0003418BF0124AB68AE7B23
:10833000003618BF012602966D7BB5FA85F56D09EA
:10834000CDE9004503F048FC04B070BD022BE3D139
:108350001A460021E4E70021DFE70023E7E70000F9
:108360000138C0B202284FF060518EBF00220D4B81
:1083700053F820200C4B00201960A3F580531A609D
:108380004FF400124FF080511A60084A936F23F0A7
:10839000060343F004039367054B19600423C2F8F6
:1083A0008C30704734D50000206001A8004000A840
:1083B0007C1002A8114B1B7813B10622104B1A60D7
:1083C0000022104BC3F88C204FF0805203F5F0339D
:1083D0007C331A600C4B1B6F13F4800F0B4B08D1CE
:1083E000826912F0800F4FF4001216BF08491A601C
:1083F0000A604FF0605200201A6070479C1C0020F9
:10840000786000A8004000A8000002A8206001A831
:10841000205001A870B514468269064682EA04031A
:108420000B405340836108070D4606D5082314F01E
:10843000080F14BF404A414A1360E90706D50123DB
:1084400014F0010F14BF3C4A3C4A13606A070CD574
:1084500003F080FC4FF4007314F0040F14BF384A8B
:10846000384A13600422384B1A60AB0706D5022342
:1084700014F0020F14BF304A304A1360E80606D5E4
:1084800014F0100F14BF00221B22304B5A6529062E
:108490001ED522062CD54FF400122D4B1A60012256
:1084A00003F587531A60FDF709FC2A4BDB68C3F319
:1084B0000363032B06D1284AD36823F0F00343F06B
:1084C000E003D36040F20122204BDA62FDF7FEFBAD
:1084D00015F0600F28D004F0600404EA050140297B
:1084E0001D4B23D0602913D0202922D1012217E06F
:1084F000184B1B6F5B02EBD44FF4001196F844301D
:10850000164A1160002BE3D00122154B1A60DFE7F9
:10851000F26A72B1116801290BD9526942F0010265
:10852000DA6180220B4B1A61002070BD40F201120B
:10853000F6E70022F4E700BF4C5000A84C6000A80A
:10854000245001A8246001A8702002A8004000A8BF
:10855000205001A8000002A81C1F00B0206001A844
:10856000005101A8014B186A02F070BB004001A83D
:10857000C36A53B11A68022A07D9586AC0F30720A0
:1085800030B11B6AB3FBF0F070470C38FFF752BBF9
:1085900070470000014B186A02F080BB004001A840
:1085A000C26A62B11368022B09D9536AC3F3072068
:1085B00040B1126ADBB25343B3FBF0F070470C38A2
:1085C000FFF73CBB70470000064BD3F838311B0463
:1085D00001D4FFF7E5BF0A78034B0448012A18BF0E
:1085E00018467047004001A820A1070048E8010094
:1085F00010B5054A4B780C7810881B0643EA0443F3
:1086000003431360002010BDC81E00B00548036876
:108610001A0C0B78120413434A7843EA02230360CE
:1086200000207047C81E00B002F08CBB70B5044635
:1086300000F168060868A0668B880846A4F86C30CC
:108640008B88C4F82031FF23237101F0DDFA054641
:1086500070B9304601F090FB054648B9204601F05C
:10866000C5FC0121A4F86C0004F13C0002F084FE7A
:10867000284670BD70B5054690F868000C46042881
:10868000164618D0FF2918D001F0B4FBA04204D838
:1086900095F8680001F0AEFB04462C71204601F00D
:1086A00049FCA0F1FF035C425C4116B9284601F089
:1086B000B5FB204670BD0224FBE70124F9E700006A
:1086C00038B590F868200446042A26D0E170856AFF
:1086D00005B390F871208A4209D200238362FFF724
:1086E000E7FB01462046BDE83840FFF791BB00227A
:1086F000FFF7C0FF054658B9094B1B78022B07D876
:10870000204601F073FC012104F13C0002F034FE2C
:10871000284638BDFF230371FAE70225F8E700BFBA
:108720003A00002010B5012480F870409089546808
:10873000091A926889B2198102FB0141002219606D
:108740005A6010BD4FF4807103F0A6BF4FF48073E0
:1087500010B9024A13607047014AFBE7701002A883
:10876000702002A837B50DF106020D4601F008F998
:10877000044688B185B12B7813F0F70F0CD0FDF7C4
:108780009DFA074BBDF806201C60064B1A806A88CC
:10879000054B1A80FDF79AFA204603B030BD00BFA2
:1087A000A01C0020A41C00209E1C00202DE9F743E3
:1087B00006461546084619B9012003B0BDE8F08306
:1087C000002AF9D0022905D80022114601F0D8F874
:1087D0000028F1D0038882781C0402F0070177D4C6
:1087E000A1F1070C077990F80580C488DCF100003E
:1087F00040EB0C002873C2F300106873C2F38010C2
:108800002874C2F3C000C2F340126874AA745FBB3C
:1088100096F86220013AEA74B269D20652D4063957
:1088200001294FD82B4A063B526D9BB2062269465E
:10883000012000F00BFFE3049DF9007017D49DF8B0
:1088400001004400E0B2B36B0BB139469847E873BE
:10885000AF736A7CDDF80210304602F0B7FE0123E8
:1088600028602B720020A8E7013FEF74D4E7F36A79
:10887000C4F30B04E4008BB11A68022A0ED95B6AB8
:1088800013F0FF0301D0B4FBF3F4A04516D8BCB13C
:10889000C8EB0828B8FBF4F4E443D3E73046FFF70D
:1088A00067FE05F1110181463046FFF78DFE002875
:1088B000EBD009FB04F4B4FBF0F4E6E70020C2E7D8
:1088C0002046C0E7002080232860EB81287274E7EF
:1088D000022072E7004000A8F8B506461446177A51
:1088E000FFF764FF054660B9237A53B104F1110123
:1088F00027723046FFF768FE22460146304602F0F6
:1089000055FE2846F8BDB3FA83F3192B084610B577
:10891000114610D0C3F11902D2B2062A28BF06228E
:108920000124931D9C40A4B2A14228BF214600F01F
:1089300009FE204610BD0022F2E70846118810B556
:10894000B1FA81F119290DD0C1F11901C9B2062975
:1089500028BF062101238C1DA340138000F010FEC8
:10896000002010BD0021F5E70121094BD3F8EC20D0
:10897000196352074FF4005148BF042203F5005316
:1089800003F12C03196044BFA3F574631A607047A8
:108990000040004438B54B7805460C46BBB9FFF79C
:1089A00009FDA378BBB940F6FF72104BDA62E37899
:1089B000ABB940F6FF720D4BDA6560220C4B1A60C2
:1089C00003F5E833402224331A60002038BD1846EE
:1089D000FFF7C6FCE5E72846FFF7C6FFE7E760229A
:1089E000044B1A6003F5D833ECE700BF00400044A5
:1089F0004C5000A84C6000A838B54FF480640020AB
:108A00000A4BD3F8EC5003F503532C331C60084B8E
:108A1000186003F035FA4FF40052064B1A606A05ED
:108A200044BFA3F577631C6038BD00BF004000441D
:108A3000A01C00205C600044082310B1024A1360AF
:108A40007047024AFBE700BF701002A8702002A81E
:108A500010B514460846012102F072F820460121A3
:108A600002F06EF8002010BD10B50349044601F075
:108A700001FFE062002010BDFC1F00B0F0B5036AEA
:108A800087B0012B044679D000F17406FFF7ECFFA4
:108A90003346A26AE1882046FFF744FE384BE56A78
:108AA0001B689D4212D02046FFF77AFD02F0A6FB1C
:108AB000002D3AD02B68002B37D02B69002B34D0F7
:108AC0009A68A2641A685B68E2632364E36A13B17C
:108AD0001B68032B03D8FFF7E7FB0128FBD1D4E980
:108AE0001D1201AB204602F0DBF9002844D1FFF74C
:108AF000DBFB0128FBD101A9304602F01FFB054634
:108B0000002839D11F4BB4F87C201A64237860F315
:108B100000032370A36A5B6919684B1C09D02046C7
:108B200000F064FC284607B0F0BD0023A364E363B3
:108B3000CBE70020D4E9222303F0080150EA010327
:108B400004D1237843F001032370EBE74FF4803125
:108B5000204603F0BEFDD4E9222302EA000603EA20
:108B6000010756EA0703DDD00749324609683B464C
:108B7000A4F10C008847D5E70225D3E70025D1E70B
:108B8000A81C0020008001A824000020F8B51F4B7D
:108B90000E461F49DD69D1F8B4301E4AC3F3812364
:108BA0001370D1F8B8304189C3F3812353704FF665
:108BB000FF7399420446C56203D0174B1B6803B18B
:108BC0009847164F3A68AA420CD0154B1B682BB138
:108BD00035B1296801B1A96820469847072502E008
:108BE0002946F9E70125204601F000FA26B9294671
:108BF00004F13C0002F0C0FB0622E36A3B60094B33
:108C00001A600122084B1A70F8BD00BFE01F00B0C7
:108C1000004000A8AC1C0020B01C0020A81C0020B4
:108C2000981C0020786000A89C1C0020482200218D
:108C3000014804F01CBB00BFCC1E00B02DE9F0437E
:108C4000894685B0044600284ED000220023C0E9A2
:108C500025234FF06412C0E9172242664FF47F4289
:108C60004FF6FF7300254FF0FF3800F10C06C2816C
:108C70001E4AA0F81A31037404AF45628563C0F838
:108C80002C818565A0F816803046138047F8045D76
:108C900003F0B6F83046FFF7C9FF6022144B39469F
:108CA000DA643046FFF776FE626A07464146304690
:108CB000FFF7B0FB4FF00052082310461946CDE9EC
:108CC000005502F0AFFD01F061F84FB92046FFF703
:108CD00083F90746B9F1000F02D008B92046C8470A
:108CE000384605B0BDE8F083A061FFDEB81C002067
:108CF000004000A870B50C46054600F13C06098806
:108D0000503002F01DFB6188208005F1580002F010
:108D100017FBA188608005F1560002F011FBE18885
:108D2000A08005F1540002F00BFB2189E080304661
:108D300002F012FB61892081304602F015FB072109
:108D40006081304602F018FB002070BD4FF6FF72C4
:108D5000B0F80E31934211D0094A0A49526E100CF4
:108D6000C2F301120132B3FBF2F30880064A07494D
:108D700007481B04086013600020704703207047F9
:108D8000004001A8B81C0020645001A8646001A83C
:108D90000000FFFF73B505460E461446FFF7A8FA1C
:108DA000002800F09B804FF40061284603F074FC1B
:108DB00038B101210846FEF733FF4FF40072484BEB
:108DC0001A6031462846FFF723F80646002866D188
:108DD0004FF44062434B1A6014F0020204D1424B3C
:108DE00042491B789B020B604FF44061404B196075
:108DF00022B93D4B3F4A5B789B02136002F0AAFF09
:108E00004FF4806314F0040F14BF3B4A3B4A14F044
:108E1000400F13604FF00402314B1A604FF04003D3
:108E200014BF374A374A136004F01803182B364B27
:108E300038D100221A622846FFF784FC18B104F0EA
:108E40000100FFF783FCA00602D52846FFF77EFF4E
:108E5000284600F0A3F9F8B12846FFF773FCD8B113
:108E60004FF40031284603F017FC00280CBF012303
:108E70000223032201A9002000F0E8FB9DF8041062
:108E8000224A01F00703052B9DF8053019D1090787
:108E900011D443F480735360002000F02DFE30465F
:108EA00002B070BD210701D50122C3E7E206C0D59B
:108EB00040F20112BEE713F0040F09D19DF806300D
:108EC000E7E703F03001202905D113F0010FF4E7A3
:108ED0004FF48073DFE79DF80630DCE70226DEE71B
:108EE000702002A8B46000A8AC1C0020B45000A8F8
:108EF000B86000A8B85000A8245001A8246001A8B8
:108F000088D000A888E000A81C1F00B0B41E00B0E4
:108F100073B506461D46FFF73DFF044688B995E840
:108F200003006A4682E803009DF80430B6F8561044
:108F3000012B034607D1884205D20094104602F067
:108F4000CBFE02B070BD5B1A0093F7E74FF6FF71DE
:108F5000084A10B513888B4209D00748074C1B04F8
:108F60000460A0F5805003600020118010BD032034
:108F7000FCE700BFB81C0020646001A80000FFFFF0
:108F80005D4B2DE9F3471C6881468A46154604B1BE
:108F90000C3457A1D1E9000100EA090201EA0A03F1
:108FA000134367D0002109F4801050EA01024FF00A
:108FB0000001524B18BF524AD3F81C3109F400107B
:108FC00018BF136050EA01021CBF4E4A1360002311
:108FD00009F00052134309D04B4B1B6803F07F4349
:108FE000B3F1007F02BF0222484B1A60002309F050
:108FF000010213432FD04FF000080022002300216C
:109000000120CDE9008802F00DFC012001F068FE8E
:10901000414620810120FEF703FE3D4B1B6F5A02A3
:1090200008D4A36913F0800F4FF4001314BF394A1A
:10903000394A1360394B1A683AB16FF0FF0038496A
:1090400002400860A1F580510A6000221A6023786E
:1090500043F00403237000220AF00803134309D0ED
:109060000121204603F035FB2AF0080749EA0009F0
:1090700047EA010AD4E9222309EA02000AEA0301C5
:1090800002460B46134306460F461CD0254BA4F15F
:109090000C0019683B4688474FF0FF33184A1360AD
:1090A000184A1360002306F0080213431EBF002273
:1090B0001D4B1A6000231D4A1F40164056EA070345
:1090C00001D0FFF743FFEB070DD51949194A08688E
:1090D0000021136811600121174A11701BB102B001
:1090E000BDE8F047184702B0BDE8F087AFF3008055
:1090F0000100302008000000841A002000C001A8F0
:109100002C00002028000020C81E00B0081002A873
:10911000000002A8205001A8206001A8B41C002073
:1091200020E000A824000020A01C00200000F02F58
:10913000C01C0020BC1C0020BA1C002008B5094B34
:10914000D3F84C315A1C0BD05B0009D40320FFF735
:1091500095F84FF08062044B1A60012243F8682CA6
:1091600008BD00BF0080E00F7C1002A84FF4002271
:10917000014B1A60704700BF702002A8024B186FA5
:10918000C0F3C040704700BF000002A8014B024A74
:109190001A607047981C002031810000802103F084
:1091A0007BBA000008B54378033BDBB2032B96BFC4
:1091B000084A0021D15CFFF75BF8012001F0A8F814
:1091C0004FF4F062044B1A604FF40072A3F5805321
:1091D0001A6008BD40D500004C6000A8012310B5FE
:1091E00080F844302823A0F84E300423044643700E
:1091F0000349FEF725FE2046FFF7D4FF002010BDEF
:109200001CF30000012310B580F844302823A0F897
:109210004E300223044643700349FEF711FE2046F8
:10922000FFF7C0FF002010BDB8EE000038B50546BE
:109230000E4CFFF7E7FF206801F056FCA3681868A2
:1092400001F052FC0A4B9B68186801F04DFC094B79
:109250009B68186801F048FC074B9B68186801F090
:1092600043FC2846BDE83840FFF79CBFB8EE00003D
:109270001CF30000C8EB000040ED0000407805380A
:1092800001288CBF00200120704700002B4B70B5D7
:109290002B4A996601F0030383F0010313449C7881
:1092A0000D461E2305F00706965D013B34444FEA48
:1092B0005505F7D147F6FE72224B55281A60224B0E
:1092C00003FB04F36FF481744FEA9343234402EAEF
:1092D00043031E4A1360194A536E23F00F030CBF59
:1092E00043F0010343F00203536691FAA1F190FAAF
:1092F000A0F0D2F838314FF0FF321B045EBF4B08AC
:10930000000F43EAC070124B48BF05211A604FF0AE
:10931000F04248BF0F48A3F58053186058BF49007A
:1093200003F5805303F10C0358BF01F002011A60EA
:10933000C906A3F58053196070BD00BF004001A8A5
:1093400074D50000306201A836FC1000305201A82C
:10935000046101A8B756351210B5072414480460FB
:109360001448154CC3B142F04002416382630122AC
:109370002260124AD2F8382112F4004F4FF4804292
:1093800000D16BB90E490A606BB14FF480430D4AAE
:109390001360536093600AE0436383632360E8E7EC
:1093A000094B1A60F1E7094B1A605A609A6010BDC8
:1093B0003C6000A8004000A83C5000A8004001A864
:1093C000B45000A8B86000A8B46000A8B85000A8C5
:1093D000054BC3F85012C3F8541219B142F20102FE
:1093E000C3F82822704700BF004001A838B50C46DA
:1093F000054600F03FF82146FFF7EAFF25B1AB6ACA
:1094000013B15B6903B11C60002038BD38B5054657
:109410000C4600F02FF8074B40B9D3F8481204B1BE
:1094200021602846BDE83840FFF7E0BFD3F84C1272
:10943000F5E700BF0080E00F07B50A4B1A78082354
:109440006AB9094A136000230193084B186800B1F8
:109450000C3001A9FFF7DAFF03B05DF804FB044A02
:10946000F0E700BF30000020FC1302A8841A00209F
:10947000FC2302A8014B1878704700BF3000002081
:109480004FF4803242F2E0010D4B5A500D490A6010
:109490001A6CD1B2C2F30722C3F88010C3F880203F
:1094A0000422C3F880200022C3F88020C3F8802063
:1094B000C3F88020C3F88020C3F88020704700BF25
:1094C00000400044EC5000442DE9F74F1C469DF845
:1094D000303000EB40000193194B0001C558C6180D
:1094E00005F00705AB1D01259D406F1E8A46736878
:1094F00004EA0701A5EB010843F0005B42459146F1
:10950000594418D94246504603F0A6FEA9EB08027A
:1095100059460AEB080003F09FFE019B43B14C44FF
:109520003D432C40F460B368A3421CBF0223B362E6
:1095300003B0BDE8F08F504603F08EFEEDE700BFAC
:109540000840004438B50C4C0D4622606060FCF7C2
:10955000B5FB0021094BD3F8E020E16052075CBF66
:1095600042F2E0020421A56058BF9950FCF7AEFB1F
:109570000DB10223A36238BD0840004400400044FE
:1095800040F6FF72034B1860034B196058605A6233
:10959000704700BFC41C0020384000442DE9F84F3C
:1095A00000EB4000284B0001042A00EB030506D81D
:1095B000013A032A2BD8DFE802F0423F3C3901266A
:1095C0000F78141FAF614A780F1DAA618A78AA61CB
:1095D000CA78AA61C358D5F8089003F00703063388
:1095E0009E4006F1FF3808EA09006B68A6EB000B05
:1095F0005C4543F0005A0CD839465044224603F0EB
:109600002BFE04EB090248EA06063240AA60BDE8D8
:10961000F88F5A463946504403F01EFE07EB0B0103
:10962000A4EB0B02504603F017FEEAE70B7801317A
:10963000AB610B780131AB610B780131AB610B7819
:10964000AB61BDE8F88F00BF0840004437B5002586
:1096500014460095FFF738FF204603B030BD302395
:10966000584300F1884000F58040806AC0F30C0048
:1096700070470000402938B514464FF001030DD85B
:10968000084D0A46C5F8C03001460320FFF786FFA3
:1096900034B104230020C5F8C03038BD1846FCE7BB
:1096A0002046FAE70040004438B5FCF707FB0122EA
:1096B0001B4B1C491C4C1A66C3F890200A604C6076
:1096C00007244C62194942F2E0050C800021184C35
:1096D00021804FF4A0245C5103F587530C331C60A8
:1096E000144B1960144B1B6F5C0212D54FF48004AD
:1096F000124B13491B680C607BB1596A090608D4E8
:109700004FF4001493F850300E490C600BB10E4B1F
:109710001A60BDE83840FCF7D9BA9B69FFDE00BF8C
:109720000040004468400044C81C00204A1D00203E
:10973000481D00204C1D0020000002A8841A0020B3
:10974000702002A8206001A8005101A807220C4B3C
:109750001A8000220B4B1A800B4B1A604FF40052F8
:1097600058605A62F022094B1A60A022A3F5805378
:109770001A600122064BC3F8C020FFF795BF00BF57
:109780004A1D0020481D002098400044486000A861
:10979000004000442DE9F041044698B1FCF78EFAF0
:1097A000434E444B3188022C01F07F0202F07807CF
:1097B00005461F44DFF820C167D1DCF8004024B91A
:1097C000FCF784FA0320BDE8F08124F00104DCF802
:1097D000000020F00100A0425BD10023CCF8003053
:1097E0002388BC426FEA43436FEA5343238047D147
:1097F000314ADFF8E8C01388ACF18008CF18083B85
:109800009BB204F10801F81A614528BF4146082BB4
:1098100080B204D9B1F900E0BEF1000F44DB13803F
:1098200022882649C2F30C02A7784A64C2B22448AF
:109830003280C26043624FF4802242F2E003CA5099
:10984000D1F8E03007F00707D90301D5FFF718FE7C
:10985000042F15D14FF480011A4B1B4A1B6F1B4B71
:109860001B68116013B35A6A120609D44FF4001131
:1098700093F85030164A116013B10122154B1A604B
:109880002846FCF723FA00209DE7012C08BF3C4640
:109890009DE7A21AD31A084A48BF80331288083AB3
:1098A0009A429DDC28468BE70C46A8E79B69FFDEC1
:1098B000481D0020C81C00204A1D00200040004414
:1098C00068400044000002A8702002A8841A00200A
:1098D000206001A8005101A84C1D0020481D002057
:1098E0000D480E4A038812880D491A44073A02F0BF
:1098F000780208330A449BB203809078094900F04B
:10990000070004284B6203D10749CB681B03FCD432
:10991000064B1A60704700BF4A1D0020481D0020FA
:10992000C81C002068400044000002A84C1D002014
:1099300010B5054C206828B1C30701D4FFF72AFFF2
:109940000023236010BD00BF4C1D00204FF4803366
:10995000084A09491360094A0B60D2F88830C3F3FA
:109960000C03782B05D8D2F8E030DB0301D5FFF7E4
:1099700087BD7047EC600044E05000440040004464
:109980002DE9F04705460F461446FCF797F9514B71
:1099900082461988504801F07F0303F07802022DB7
:1099A00002444E4E1BD14E4DB6F800C02D689DB9F5
:1099B00001EB0C05073D05F078050544EB1A1B1A71
:1099C000318848BF803399420DDC5046FCF77EF960
:1099D00000252846BDE8F08725F00105EEE7012DBA
:1099E00008BF1546EAE70FB9002C45D095423D491E
:1099F00046D1CE68B6B204B126800A68002F3BD0AB
:109A000002F0070909F106024FF0010909FA02F90B
:109A1000354A1FFA89F8D2F88820C2F30C029A421C
:109A200040DD2B889CB21B04CFD4AB78C4F30C046C
:109A300008F1FF3203F00703A41B48EA02021440B6
:109A4000052B3B70A4B225D824B2E0430421C00FFB
:109A5000FEF7FEFA7C8008F1FF331E40234BA4B2D0
:109A60001B689A19BA6032194A45D3BF0023A8EB84
:109A70000606BE80BC80FB605046FCF727F9A8E7CD
:109A8000A5F10802824238BF05F178021688C6F3B4
:109A90000C06B0E7164B5B6D002B14BF06230023AA
:109AA000E41AD1E78A6808F1FF33921B48EA0303FE
:109AB0001340104A9BB21CB2D26843B9C2F303628E
:109AC000032A14BF002208223A707B80C3E70822D1
:109AD000FAE700BF481D0020C81C00204A1D0020D6
